:020000040800F2
:10000000D0060020350200080F1200083D1100083C
:100010000D12000855050008B51300080000000087
:1000200000000000000000000000000009130008AC
:100030005705000800000000111200080B1300080B
:100040004F0200084F0200084F0200084F0200084C
:100050004F0200084F0200084F0200084F0200083C
:100060004F0200084F0200084F0200084F0200082C
:100070004F0200084F0200084F0200084F0200081C
:100080004F0200084F0200084F0200080000000065
:100090000000000000000000000000004F02000807
:1000A0004F0200084F0200084F0200084F020008EC
:1000B0004F0200084F0200084F0200084F020008DC
:1000C0004F0200084F0200084F0200084F020008CC
:1000D0004F0200084F0200084F0200080000000015
:1000E0004F0200084F0200084F0200080000000005
:1000F0000000000000000000000000004F020008A7
:10010000000000004F0200084F0200084F020008E4
:1001100000000000000000000000000000000000DF
:100120004F0200084F0200084F0200084F0200086B
:100130004F02000800000000000000000000000066
:100140000000000000000000000000004F02000856
:100150004F0200084F0200084F0200084F0200083B
:100160004F0200084F0200080000000000000000DD
:10017000000000000000000000000000000000007F
:10018000000000004F020008000000000000000016
:100190004F02000800F002F800F03CF80AA090E8D6
:1001A000000C82448344AAF10107DA4501D100F032
:1001B00031F8AFF2090EBAE80F0013F0010F18BFC3
:1001C000FB1A43F0010318474C1600006C160000A0
:1001D000103A24BF78C878C1FAD8520724BF30C873
:1001E00030C144BF04680C60704700000023002445
:1001F00000250026103A28BF78C1FBD8520728BF37
:1002000030C148BF0B6070471FB501F0F0FA1FBD49
:1002100010B510BD00F0CFF81146FFF7F5FF01F063
:10022000DBF800F0EDF803B4FFF7F2FF03BC00F0D9
:10023000F5F800000948804709480047FEE7FEE757
:10024000FEE7FEE7FEE7FEE7FEE7FEE7FEE7FEE786
:1002500004480549054A064B70470000A5130008ED
:1002600095010008D0000020D0060020D002002018
:10027000D002002053EA020C00F069802DE9F04B17
:100280004FF00006002B1FBFB3FA83F503FA05F405
:1002900024FA05F65E4012BF1643B2FA82F502FA5E
:1002A00005F4C5F120051EBF22FA05FC44EA0C0442
:1002B000203556EA044C4FEA144418BF641C4FF032
:1002C00000084FF00009904271EB030C39D300296C
:1002D00019BFB1FA81F701FA07F6B0FA80F700FA10
:1002E00007F6C7F120071EBF20FA07FC46EA0C06F6
:1002F0002037B6FBF4FCA7EB0507103F07F01F0BF8
:10030000CBF120060CFA0BFB2CFA06F644BFB346E1
:100310000026202FA4BF5E464FF0000B5BEA060CC0
:1003200008BF4FF0010B19EB0B09ABFB027C48EB4C
:100330000608C01B06FB02CC0BFB03CC71EB0C01C7
:10034000C1E70B46024641464846BDE8F08B13B56F
:100350004FF000004FF00001AFF30080BDE81C40FB
:1003600070474FF0000200B5134694469646203978
:1003700022BFA0E80C50A0E80C50B1F12001BFF45E
:10038000F7AF090728BFA0E80C5048BF0CC05DF8C4
:1003900004EB890028BF40F8042B08BF704748BF12
:1003A00020F8022B11F0804F18BF00F8012B704786
:1003B000704770477047754600F02CF8AE46050050
:1003C0006946534620F00700854618B020B5FFF770
:1003D0003FFFBDE820404FF000064FF000074FF010
:1003E00000084FF0000B21F00701AC46ACE8C00953
:1003F000ACE8C009ACE8C009ACE8C0098D4670475C
:1004000010B50446AFF300802046BDE81040FFF76A
:100410000ABF000000487047700000200149182002
:10042000ABBEFEE72600020070470000464910B54B
:100430004A6822F440324A604A6843681A434A6074
:1004400001684A6822F480724A6001684A68036958
:1004500042EA03224A6001684A6822F040724A6018
:1004600001684A6883681A434A6001688A6822F40E
:1004700000628A6001688A68C3681A438A60816A78
:100480006FF07062D14201688A6822F070628A60FF
:1004900001688A680CD0836A1A438A6001688A6896
:1004A00022F040528A6001688A68C36A1A4301E0F8
:1004B00022F040528A6001688A6822F002028A6053
:1004C00001688A68037E42EA43028A6090F820103D
:1004D000002901684A680FD042F400624A6001684E
:1004E0004A6822F460424A6001684A68174C436ACD
:1004F00004EB43331A4301E022F400624A600168CE
:10050000CA6A22F47002CA620168CA6A838B104CFC
:1005100004EB03531A43CA6201688A6822F400722A
:100520008A6001688A6890F8303042EA43228A6023
:1005300001688A6822F480628A6001688A6840697A
:1005400042EA8020886010BD0023014000E0FFFFE8
:100550000000F0FFFEE7704772B6FEE778B50024B2
:10056000009490F83C20012A19D0012280F83C2008
:100570000A6807230568092A13D9EE680A3A02EBCC
:10058000420293409E43EE600B788A680A3B03EB7D
:1005900043039A400368DD682A43DA6010E00220D2
:1005A00078BD2E6902EB420293409E432E610B7888
:1005B0008A6803EB43039A4003681D692A431A6162
:1005C0004A681F23072A13D205686E6B521E02EB7E
:1005D000820293409E436E630B790A885B1E92B23F
:1005E00003EB83039A4003685D6B2A435A6327E059
:1005F00005680D2A12D22E6BD21F02EB82029340A5
:100600009E432E630B790A88DB1F92B203EB8303B0
:100610009A4003681D6B2A431A6311E0EE6A0D3A93
:1006200002EB820293409E43EE620B790A880D3BF7
:1006300092B203EB83039A400368DD6A2A43DA62CD
:10064000164B0568144A9D4206D10D68122D03D140
:10065000556845F48005556005689D4218D10B68C2
:10066000102B01D0112B13D1536843F400035360B6
:10067000096810290CD10A490A4A0968B1FBF2F14C
:1006800001EB8101490000E0491E00910029FBD1E6
:1006900080F83C40002078BD00230140002001404C
:1006A0002400002040420F000068C06C704770B505
:1006B00004004FF0000503D0206C002610B107E0C5
:1006C000012070BD204600F01DF8666484F83C608F
:1006D000206CC00610D4206C20F4885040F002003A
:1006E00020642046FFF7A2FE6664206C20F0020022
:1006F00040F00100206400E0012584F83C602846B9
:1007000070BD000010B586B0044614216846FFF79E
:1007100028FE1149206888421CD110480021026837
:1007200042F480720260006800F4807005900B480B
:100730001438026842F002020260006800F0020011
:100740000590012000900320CDE90101694604488D
:1007500000F0D6F806B010BD002001404438024039
:10076000000402402DE9F041044600680D4681680E
:100770004FF0000749050BD58068C00508D5206CEF
:1007800040F02000206484F83C700120BDE8F08136
:1007900000F0ACF9064613E0681C11D025B100F05A
:1007A000A5F9801BA8420BD920680068800707D4F0
:1007B000206C40F00400206484F83C700320E5E7DE
:1007C000206800688007E7D521686FF01200086094
:1007D000206C40F4007020642068816811F0405F54
:1007E00013D1217E89B9C16A11F4700F02D08068DB
:1007F00040050AD4206C20F480702064206CC00472
:1008000003D4206C40F0010020640020BEE700000B
:1008100018B50021009190F83C20012A07D0012250
:1008200080F83C2002689368DB0702D011E00220C8
:1008300018BD936843F001039360244A244B126867
:10084000B2FBF3F202EB420200E0521E0092002AD9
:10085000FBD102689368DB072ED0036C40F2016481
:10086000A34343F48073036453685B0505D5036CAD
:1008700023F4005343F480530364036CDB0404D576
:10088000436C23F00603436400E0416480F83C10AD
:1008900010496FF02203136049680068C90602D04E
:1008A0000D49884210D1816811F0405F0CD18168F8
:1008B00041F08041816007E0016C41F0100101646A
:1008C000416C41F001014164002018BD240000206A
:1008D00040420F00002301400020014070B5044653
:1008E00000F004F90546601C02D004480078044476
:1008F00000F0FCF8401BA042FAD370BD18000020A5
:100900002DE9F84FDFF8B8A1002201240AF1040B09
:1009100003254FF00F090BF1040E00BF0B6804FA1A
:1009200002F63340B34273D10F7907F00307012F6A
:1009300001D0022F16D187684FEA420805FA08FC59
:1009400027EA0C07D1F80CC00CFA08FC4CEA070C9B
:10095000C0F808C04768B7430E79C6F30016964042
:100960003E4346600E79F643B6070DD0C768560081
:1009700005FA06FC27EA0C07D1F808C00CFA06FCB9
:100980004CEA070CC0F80CC00E7906F00306022EE4
:1009900010D1D60800EB8608D8F8206057074FEA38
:1009A000D76C09FA0CF7BE430F6907FA0CF7374307
:1009B000C8F8207006684FEA420C05FA0CF7BE43EF
:1009C0000F7907F0030707FA0CF7374307604E6803
:1009D00016F4403F6DD03B4E376847F48047376090
:1009E000366822F0030706F480460096364E07EB81
:1009F000060CDCF8086897073F0F09FA07F826EAA3
:100A00000806DFF8C880404503D14FF000081EE01B
:100A10004FE0DFF8BC80404502D14FF0010816E0FE
:100A2000DFF8B080404502D14FF002080FE0DFF858
:100A3000A880404502D14FF0030808E0DFF89C8011
:100A4000404502D14FF0040801E04FF0070808FAD2
:100A500007F848EA0608CCF80888DAF80060574634
:100A6000D1F804C09E435FEACC3C00D51E433E60F3
:100A7000DBF800605F46D1F804C09E435FEA8C3C1F
:100A800000D51E433E60DEF800607746D1F804C012
:100A90009E435FEACC2C00D51E433E60084F0C37C6
:100AA0003E68D1F804C09E435FEA8C2C00D51E43FB
:100AB0003E60521C102AFFF431AFBDE8F88F0000F1
:100AC000003C014044380240003001400000024038
:100AD0000004024000080240000C024000100240E6
:100AE0000069084000D0012070470000014880687C
:100AF0007047000018000020024881680278114405
:100B000081607047180000200B4810B5016841F45F
:100B100000710160016841F480610160016841F485
:100B200080710160032000F061F80F2000F006F8EA
:100B300000F024F8002010BD003C024070B50D4DBF
:100B400004464FF47A712878B1FBF0F00A4909683D
:100B5000B1FBF0F000F0DEFA48B9102C07D2002209
:100B60002146501E00F022F800206C6070BD01206C
:100B700070BD000018000020240000200A4808B5BD
:100B8000016841F480410160006800F480400090F9
:100B90000548001F016841F080510160006800F0C5
:100BA0008050009008BD000044380240F0B40E4B65
:100BB0001B680C46C3F30223C3F10705042D00D9BB
:100BC0000425191D072901D2002300E0DB1E0126A0
:100BD00006FA05F1491E214099409E40761E1640B6
:100BE0003143F0BC00F0E7BB0CED00E0064900F03B
:100BF000070208684FF6FF03184040EA0220034A44
:100C000010430860704700000CED00E00000FA059A
:100C10002DE9F0470E46050065D0DFF81481D8F8BD
:100C20000000F7B200F00700B04207D288F8007069
:100C3000D8F8000000F00700B04254D128683D4CBD
:100C4000810712D5400703D5206840F4E0502060AA
:100C50002878000703D5206840F4604020602068B1
:100C6000A96820F0F000084320602878C0072DD044
:100C7000304968680839012812D0022813D00328A7
:100C800011D00968890700292DDA216821F00301B4
:100C900001432160FFF72AFF814641F2883A0EE0C6
:100CA00009688903EFE709688901ECE7FFF71EFF90
:100CB000A0EB0901514502D90320BDE8F087206867
:100CC000696800F00C00B0EB810FEFD1D8F800108C
:100CD000404601F00701B14207D90770006800F0F3
:100CE0000700B04201D00120E7E72878400705D58A
:100CF0002068E96820F4E050084320602878000765
:100D000006D52068296920F4604040EAC1002060CF
:100D100000F018F82168084AC1F30311515CC8407B
:100D20000649086006480068FFF708FF0020C4E78E
:100D3000003C02400838024002180008240000204D
:100D40001C000020154810B5006810F00C02144873
:100D500013D01449042A0FD0082A0ED10F4C241F97
:100D60002268236802F03F025B0207D52068C0F3C7
:100D70008810A0FB010106E0084610BD2168C1F300
:100D80008811A1FB00010023FFF774FA2168C1F369
:100D90000141491C4900B0FBF1F010BD0838024088
:100DA0000024F40040787D012DE9F84F04006ED056
:100DB0002078DFF84C93C007A9F104054AD009F167
:100DC00004000168C1F38101012908D00068C0F363
:100DD000810002280AD1D9F80000400206D528680F
:100DE000800337D560680028E1D033E06068B0F553
:100DF000803F10D0B0F5A02F286810D020F48030AC
:100E00002860286820F4802028606068A8B1FFF777
:100E10006DFE06460DE0286840F48030F4E740F4AB
:100E200080202860F7E700BFFFF760FE801B642882
:100E300073D828688003F7D50CE0FFF757FE064605
:100E400005E000BFFFF752FE801B6428F0D8286839
:100E50008003F7D42078DFF8AC8280074FF0000AD7
:100E60003ED5A748001D016811F00C0F08D000689E
:100E7000C0F3810002280BD1D9F80000400207D44A
:100E80002868800716D5E068012800D112E033E118
:100E9000E068B8B10120C8F80000FFF727FE064659
:100EA00005E000BFFFF722FE801B0228C0D828689B
:100EB0008007F7D52868216920F0F80040EAC100D2
:100EC00028600DE0C8F800A0FFF710FE064604E019
:100ED000FFF70CFE801B02281FD828688007F7D474
:100EE0002078000722D5864F87486169703771B135
:100EF00001210160FFF7FAFD064604E0FFF7F6FD69
:100F0000801B022809D838688007F7D50EE0C0F8A2
:100F100000A0FFF7EBFD064605E082E0FFF7E6FDE7
:100F2000801B02287DD838688007F7D420784007D6
:100F300068D5DFF8CCB100270BF13C0BDBF80000E3
:100F4000C0000BD4DBF8001041F08051CBF800104A
:100F5000DBF80000012700F0805000906B4E3068F5
:100F6000C00510D4306840F480703060FFF7BEFDDB
:100F7000009005E0FFF7BAFD0099401A022850D80A
:100F80003068C005F6D55E4EA0686C3601280FD0DB
:100F90000528306810D020F001003060306820F063
:100FA00004003060A068B8B1FFF7A0FD00900FE02A
:100FB000306840F00100F4E740F004003060F7E7EB
:100FC000FFF794FD0099411A41F28830814266D8BA
:100FD00030688007F4D50EE0FFF788FD009007E049
:100FE000FFF784FD0099411A41F28830814256D8BA
:100FF00030688007F4D42FB1DBF8001021F0805165
:10100000CBF80010A069C8B33D49091D0968C1F3B8
:10101000810102294AD00228504607D0C8F8600052
:1010200000E03CE0FFF762FD04463BE04746C8F8BD
:101030006000FFF75BFD064605E000BFFFF756FDC9
:10104000801B02282BD828688001F7D4D4E9070137
:101050000843A16A2E4A490802EB0141626A41EA4B
:101060008211084394F82C1040EA0161C9F800107D
:1010700001203866FFF73AFD044606E03EE000BF77
:10108000FFF734FD001B022809D828688001F7D536
:1010900034E000BFFFF72AFD001B022802D903201D
:1010A000BDE8F88F28688001F4D427E00128F7D044
:1010B000D9F80000E26900F4800191421CD1226A53
:1010C00000F03F01914217D147F6C071626A0140BA
:1010D000B1EB821F10D1A26A4FF0FF3300F4403110
:1010E00003EB5202B1EB024F06D194F82C1000F042
:1010F0007060B0EB016F01D00120D1E70020CFE795
:101100000438024000004742800E47420070004011
:101110000000FFFF10B5401EB0F1807F01D3012019
:1011200010BD4FF0E02460610F21601700F043F91B
:101130000020A06107202061002010BDFEE7000014
:101140007FB500241448009401940294114903943B
:10115000C0E90014846001250461057680F8204010
:101160000E49C0E90A14C561C46080F83040456189
:10117000FFF79DFA08B1FFF7EFF90820CDE9000568
:10118000694602940448FFF7E9F9002801D0FFF707
:10119000E3F97FBD00200140280000200100000F7E
:1011A00010B5184886B00024016841F004010160C0
:1011B000016801F004010591016841F080010160BE
:1011C000016801F080010591016841F001010160B1
:1011D000016801F001010591016841F0020101601F
:1011E0000068142100F0020005906846FFF7B9F886
:1011F0001020CDE90004694603480294FFF780FB04
:1012000006B010BD3038024000040240FEE7FEE7A1
:101210007047000010B5304C2DED048B94ED028A20
:10122000BDEEC80A10EE100A062819DC18EE100AE6
:1012300000F06CFA41EC190B18EE100A00F066FA97
:101240009FED261B53EC112B00F062F953EC192B88
:1012500000F05EF900F02AF9E060BDEC048B10BDEF
:1012600010EE100AC01F122806D89FED1E0A68EE65
:10127000000A9FED1D0A0AE010EE100A1A38132822
:1012800008D89FED1A0A68EE000A9FED190A00EED1
:10129000880A1DE010EE100A2E38092806D89FEDA6
:1012A000150A68EE000A9FED140AF0E710EE100A26
:1012B0003838112806D89FED110A68EE000A9FED14
:1012C000100AE4E710EE100A4928C6DD9FED0D0A6A
:1012D00084ED030AC1E700000000002009F9A067BF
:1012E000B3AA10400A68823E00D00C433F57DB3D52
:1012F0005C1F6943CDCCCC3D008077432653853DB0
:10130000828AB04300002F447047FFF7F5BB00000E
:1013100030B593B030216846FFF723F814210CA8AC
:10132000FFF71FF81D480024016841F0805101605B
:10133000006800F0805011901948016821F4404184
:1013400041F4004101600068022500F44040119022
:101350000120039010200490009506950820CDE907
:1013600007404820CDE9090504200B906846FFF7A7
:101370001BFD08B172B6FEE70F20CDE90C054FF456
:101380008050CDE90E4002210CA81094FFF740FCDC
:10139000002801D072B6FEE713B030BD40380240DD
:1013A000007000400248016841F47001016070471C
:1013B00088ED00E0FEE70907090E002804DB00F1D4
:1013C000E02080F80014704700F00F0000F1E020EA
:1013D00080F8141D704700002DED088BFFF794FB7B
:1013E000FFF796FFFFF7DCFEFFF7AAFE264C01266B
:1013F0009FED268B9FED279BDFED28AA9FED28BA56
:10140000284DB2EE06AA66612748FFF701FA64216B
:101410002548FFF7A7F92448FFF746F900EE100A20
:10142000B8EE400A84ED000A10EE100A00F06EF9E2
:1014300053EC182B00F06CF853EC192B00F068F803
:1014400000F034F800EE100A84ED010AC0EE0A0A3A
:1014500020EEAA0A20EE0B0A84ED020AFFF7DAFE5C
:1014600010212846FFF73CFB30B110212846FFF73A
:1014700037FB012803D003E00020206100E0266153
:101480003220FFF72BFABFE7000000206666666691
:1014900066660A40000000000000303F33332341FD
:1014A0000000C842000402402800002021F0004251
:1014B000A2F16052B2F5801F01F0004328BFD2F1C3
:1014C0007F6C0BD95FEA001C43EAC20242EB50700A
:1014D00018BF704728BF20F001007047B2F5801F89
:1014E000BCBF184670474FEA410C1CF5001F02D2E2
:1014F000084600F081B970B500F0B4F8000000892A
:10150000FFF7F6BF4FF00040A0F5800070470000E5
:10151000DFF848C170B51CEA111E1EBF1CEA131586
:101520009EEA0C0F95EA0C0F00F06F8081EA03042D
:1015300023EA4C134EEAD47E21EA4C1141F4801187
:1015400043F48013AE44A1FB024CA0FB0365AEF153
:101550007F7E361955EB0C05A1FB034C4CF10003C3
:10156000A0FB021C16EB0C06654153F10003094277
:1015700018BF46F0010613F4007F0BD14FEA033188
:101580004FEA0530340341EA155140EA16506FF036
:1015900003020AE04FEAC3214FEAC520F40241EA00
:1015A000555140EA56506FF0020202EB2E4201EB19
:1015B000025585EACE710AD05FEA440C18BF24F0C8
:1015C000004450F1000041F1000120EAD47040F2E3
:1015D000FE7C624500D270BDA84214BF4FF080442B
:1015E0004FF04044002E08BF0024BEF1806FA8BF1A
:1015F000A1F1C041BDE8704080F282804FF0000050
:1016000001F1C04101F0004170479EEA0C0F0CEA65
:10161000131518BF95EA0C0F06D04FF0000081EAB1
:10162000030E0EF0004170BD00F01CF88900013E71
:1016300000F007B800F009B84FEA430C5FEA5C5CC1
:1016400008D081EA030100F05BB84FEA410C5FEA81
:101650005C5CF6D14FF00000014970470000FF07C5
:101660000000F87F0EF1020E2EF0030E5EF8046B00
:10167000364205D4012A43EB030515F5001F12D8A5
:10168000012841EB010C1CF5001F0CD80ED14FEACC
:10169000D17C15F5001F0CEB4C0C0CF1020C08BFB3
:1016A0004CEBD37C04E04FF0080C01E04FEAD37C14
:1016B0000CEB4C0526FA05F606F00706B6F1040C0D
:1016C00006D20EEB860CBDE870404CF0010C604772
:1016D000DFE80CF0090B02024FF000414FF0000070
:1016E000A1F5002170BD19461046012851EB0104F7
:1016F00018BFD4F5001484BF002001F0004170BD74
:101700000808A0F500114FEA3101704743004FEA85
:10171000D30C4FEA3C0C43401FBF40070CF1605113
:1017200013F0FE4F70471CF0006F03D100200CF047
:10173000004170470CF0004343EA507010B540EA96
:10174000CC0000F00EF800BF000000924FEA00014C
:10175000FFF7D6BF4FF000414FF00000A1F5002188
:1017600070470EF1020E2EF0030E5EF8044B244279
:1017700004D44FEA4102B2F17F4F11D84FEA40033F
:10178000B3F17F4F0CD80ED14FEAD07CB2F17F4F2E
:101790000CEB4C0C0CF1020C08BF4CEBD17C04E0C0
:1017A0004FF0080C01E04FEAD17C0CEB4C0324FA1B
:1017B00003F404F00704B4F1040C06D20EEB840C1D
:1017C000BDE810404CF0010C6047DFE80CF0070862
:1017D00002024FF00040A0F5800010BD0846420014
:1017E00018BFD2F1807288BF00F0004010BD4FF0EA
:1017F0004070E1EE100A7047FF2141EAD050C00569
:10180000704700000000000000000102030406070A
:10181000080900003418000800000020280000001B
:10182000D00100085C18000828000020A80600006D
:10183000EC010008000000000000000000000000B3
:101840000000000000000000000000000100000097
:0C18500010000000000000000024F40064
:040000050800019559
:00000001FF
