:020000040800F2
:10000000E0060020350200080F100008FB0E000873
:100010000D100008CB040008A51200080000000025
:1000200000000000000000000000000013100008A5
:10003000CD04000800000000111000081510000891
:100040004F0200084F0200084F0200084F0200084C
:100050004F0200084F0200084F0200084F0200083C
:100060004F0200084F0200084F0200084F0200082C
:100070004F0200084F0200084F0200084F0200081C
:100080004F0200084F0200084F0200080000000065
:100090000000000000000000000000004F02000807
:1000A0004F0200084F0200084F0200084F020008EC
:1000B0004F0200084F0200084F0200084F020008DC
:1000C0004F0200084F0200084F0200084F020008CC
:1000D0004F020008411200084F0200080000000013
:1000E0004F0200084F0200084F0200080000000005
:1000F0000000000000000000000000004F020008A7
:10010000000000004F0200084F0200084F020008E4
:1001100000000000000000000000000000000000DF
:100120004F0200084F0200084F0200084F0200086B
:100130004F02000800000000000000000000000066
:100140000000000000000000000000004F02000856
:100150004F0200084F0200084F0200084F0200083B
:100160004F0200084F0200080000000000000000DD
:10017000000000000000000000000000000000007F
:10018000000000004F020008000000000000000016
:100190004F02000800F002F800F03CF80AA090E8D6
:1001A000000C82448344AAF10107DA4501D100F032
:1001B00031F8AFF2090EBAE80F0013F0010F18BFC3
:1001C000FB1A43F0010318479C120000BC12000008
:1001D000103A24BF78C878C1FAD8520724BF30C873
:1001E00030C144BF04680C60704700000023002445
:1001F00000250026103A28BF78C1FBD8520728BF37
:1002000030C148BF0B6070471FB501F019F91FBD21
:1002100010B510BD00F020F91146FFF7F5FF01F011
:1002200053F800F03EF903B4FFF7F2FF03BC00F00F
:1002300045F900000948804709480047FEE7FEE706
:10024000FEE7FEE7FEE7FEE7FEE7FEE7FEE7FEE786
:1002500004480549054A064B70470000AD100008E8
:1002600095010008E0000020E0060020E0020020E8
:10027000E002002053EA020C00F069802DE9F04B07
:100280004FF00006002B1FBFB3FA83F503FA05F405
:1002900024FA05F65E4012BF1643B2FA82F502FA5E
:1002A00005F4C5F120051EBF22FA05FC44EA0C0442
:1002B000203556EA044C4FEA144418BF641C4FF032
:1002C00000084FF00009904271EB030C39D300296C
:1002D00019BFB1FA81F701FA07F6B0FA80F700FA10
:1002E00007F6C7F120071EBF20FA07FC46EA0C06F6
:1002F0002037B6FBF4FCA7EB0507103F07F01F0BF8
:10030000CBF120060CFA0BFB2CFA06F644BFB346E1
:100310000026202FA4BF5E464FF0000B5BEA060CC0
:1003200008BF4FF0010B19EB0B09ABFB027C48EB4C
:100330000608C01B06FB02CC0BFB03CC71EB0C01C7
:10034000C1E70B46024641464846BDE8F08B13B56F
:100350004FF000004FF00001AFF30080BDE81C40FB
:10036000704710B5431C02E010F8011B71B1810702
:10037000FAD14FF0013202C88C1A8C4314EAC21130
:10038000F9D0C01A0A0603D0C01E10BDC01A10BD95
:100390000A0401D0801E10BD0902FCD0401E10BD11
:1003A00010B5203AC0F00B80B1E81850203AA0E810
:1003B0001850B1E81850A0E81850BFF4F5AF5FEA44
:1003C000027C24BFB1E81850A0E8185044BF18C9F7
:1003D00018C0BDE810405FEA827C24BF51F8043B9E
:1003E00040F8043B08BF7047D20728BF31F8023BF2
:1003F00048BF11F8012B28BF20F8023B48BF00F886
:10040000012B70474FF0000200B513469446964604
:10041000203922BFA0E80C50A0E80C50B1F1200117
:10042000BFF4F7AF090728BFA0E80C5048BF0CC0C5
:100430005DF804EB890028BF40F8042B08BF704723
:1004400048BF20F8022B11F0804F18BF00F8012B95
:100450007047704770477047754600F02BF8AE46FE
:1004600005006946534620F00700854618B020B5C0
:10047000FFF7EEFEBDE820404FF000064FF000070A
:100480004FF000084FF0000B21F00701AC46ACE83C
:10049000C009ACE8C009ACE8C009ACE8C0098D46A9
:1004A000704710B50446AFF300802046BDE8104009
:1004B000FFF7B9BE004870477C00002001491820B2
:1004C000ABBEFEE7260002007047FEE77047000063
:1004D00070B5044600F004F90546601C02D00448DB
:1004E0000078044400F0FCF8401BA042FAD370BD31
:1004F000080000202DE9F84FDFF8B8A10022012400
:100500000AF1040B03254FF00F090BF1040E00BF95
:100510000B6804FA02F63340B34273D10F7907F047
:100520000307012F01D0022F16D187684FEA420836
:1005300005FA08FC27EA0C07D1F80CC00CFA08FCF5
:100540004CEA070CC0F808C04768B7430E79C6F3F9
:10055000001696403E4346600E79F643B6070DD02E
:10056000C768560005FA06FC27EA0C07D1F808C050
:100570000CFA06FC4CEA070CC0F80CC00E7906F029
:100580000306022E10D1D60800EB8608D8F82060AA
:1005900057074FEAD76C09FA0CF7BE430F6907FA01
:1005A0000CF73743C8F8207006684FEA420C05FA8A
:1005B0000CF7BE430F7907F0030707FA0CF7374330
:1005C00007604E6816F4403F6DD03B4E376847F4E5
:1005D00080473760366822F0030706F480460096AD
:1005E000364E07EB060CDCF8086897073F0F09FA50
:1005F00007F826EA0806DFF8C880404503D14FF027
:1006000000081EE04FE0DFF8BC80404502D14FF00B
:10061000010816E0DFF8B080404502D14FF0020833
:100620000FE0DFF8A880404502D14FF0030808E052
:10063000DFF89C80404502D14FF0040801E04FF004
:10064000070808FA07F848EA0608CCF80888DAF834
:1006500000605746D1F804C09E435FEACC3C00D509
:100660001E433E60DBF800605F46D1F804C09E4345
:100670005FEA8C3C00D51E433E60DEF800607746A2
:10068000D1F804C09E435FEACC2C00D51E433E60E7
:10069000084F0C373E68D1F804C09E435FEA8C2CAB
:1006A00000D51E433E60521C102AFFF431AFBDE856
:1006B000F88F0000003C0140443802400030014007
:1006C000000002400004024000080240000C02400A
:1006D000001002400AB1816170470904FBE7000085
:1006E00001488068704700000800002002488168C7
:1006F0000278114481607047080000200B4810B553
:10070000016841F400710160016841F48061016099
:10071000016841F480710160032000F06FF80F2040
:1007200000F006F800F024F8002010BD003C024064
:1007300070B50D4D04464FF47A712878B1FBF0F096
:100740000A490968B1FBF0F000F00AFB48B9102C27
:1007500007D200222146501E00F030F800206C60C5
:1007600070BD012070BD00000800002014000020B2
:100770000A4808B5016841F480410160006800F44E
:10078000804000900548001F016841F080510160E1
:10079000006800F08050009008BD0000443802401E
:1007A000002809DB00F01F02012191404009800070
:1007B00000F1E020C0F8001170470000F0B40E4BCB
:1007C0001B680C46C3F30223C3F10705042D00D9AF
:1007D0000425191D072901D2002300E0DB1E012694
:1007E00006FA05F1491E214099409E40761E1640AA
:1007F0003143F0BC00F057BD0CED00E0064900F0BD
:10080000070208684FF6FF03184040EA0220034A37
:1008100010430860704700000CED00E00000FA058E
:100820002DE9F0470E46050065D0DFF81481D8F8B1
:100830000000F7B200F00700B04207D288F800705D
:10084000D8F8000000F00700B04254D128683D4CB1
:10085000810712D5400703D5206840F4E05020609E
:100860002878000703D5206840F4604020602068A5
:10087000A96820F0F000084320602878C0072DD038
:10088000304968680839012812D0022813D003289B
:1008900011D00968890700292DDA216821F00301A8
:1008A00001432160FFF71CFF814641F2883A0EE0C8
:1008B00009688903EFE709688901ECE7FFF710FF92
:1008C000A0EB0901514502D90320BDE8F08720685B
:1008D000696800F00C00B0EB810FEFD1D8F8001080
:1008E000404601F00701B14207D90770006800F0E7
:1008F0000700B04201D00120E7E72878400705D57E
:100900002068E96820F4E050084320602878000758
:1009100006D52068296920F4604040EAC1002060C3
:1009200000F038F82168084AC1F30311515CC8404F
:100930000649086006480068FFF7FAFE0020C4E791
:10094000003C0240083802404A140008140000200D
:100950000C0000200448054900680968044AC1F3F6
:100960008221515CC84070471400002008380240C2
:100970005A1400080448054900680968044AC1F38C
:100980004231515CC84070471400002008380240D2
:100990005A140008154810B5006810F00C021448ED
:1009A00013D04110042A0FD0082A0ED10F4C241F57
:1009B0002268236802F03F025B0207D52068C0F37B
:1009C0008810A0FB010106E0084610BD2168C1F3B4
:1009D0008811A1FB00010023FFF74CFC2168C1F343
:1009E0000141491C4900B0FBF1F010BD083802403C
:1009F0000024F4002DE9F84F04006ED02078DFF8D1
:100A00004C93C007A9F104054AD009F1040001681C
:100A1000C1F38101012908D00068C0F381000228D8
:100A20000AD1D9F80000400206D52868800337D5DE
:100A300060680028E1D033E06068B0F5803F10D0F6
:100A4000B0F5A02F286810D020F4803028602868E6
:100A500020F4802028606068A8B1FFF741FE0646B8
:100A60000DE0286840F48030F4E740F480202860EE
:100A7000F7E700BFFFF734FE801B642873D82868AF
:100A80008003F7D50CE0FFF72BFE064605E000BF1C
:100A9000FFF726FE801B6428F0D828688003F7D46F
:100AA0002078DFF8AC8280074FF0000A3ED5A748D7
:100AB000001D016811F00C0F08D00068C0F3810020
:100AC00002280BD1D9F80000400207D4286880071B
:100AD00016D5E068012800D112E033E1E068B8B132
:100AE0000120C8F80000FFF7FBFD064605E000BF47
:100AF000FFF7F6FD801B0228C0D828688007F7D5CD
:100B00002868216920F0F80040EAC10028600DE063
:100B1000C8F800A0FFF7E4FD064604E0FFF7E0FD9B
:100B2000801B02281FD828688007F7D42078000788
:100B300022D5864F87486169703771B10121016004
:100B4000FFF7CEFD064604E0FFF7CAFD801B022832
:100B500009D838688007F7D50EE0C0F800A0FFF785
:100B6000BFFD064605E082E0FFF7BAFD801B0228C4
:100B70007DD838688007F7D42078400768D5DFF83B
:100B8000CCB100270BF13C0BDBF80000C0000BD40C
:100B9000DBF8001041F08051CBF80010DBF80000CA
:100BA000012700F0805000906B4E3068C00510D4D3
:100BB000306840F480703060FFF792FD009005E0EF
:100BC000FFF78EFD0099401A022850D83068C00502
:100BD000F6D55E4EA0686C3601280FD00528306827
:100BE00010D020F001003060306820F00400306048
:100BF000A068B8B1FFF774FD00900FE0306840F0D6
:100C00000100F4E740F004003060F7E7FFF768FD0B
:100C10000099411A41F28830814266D830688007D5
:100C2000F4D50EE0FFF75CFD009007E0FFF758FDFC
:100C30000099411A41F28830814256D830688007C5
:100C4000F4D42FB1DBF8001021F08051CBF8001064
:100C5000A069C8B33D49091D0968C1F38101022992
:100C60004AD00228504607D0C8F8600000E03CE0B7
:100C7000FFF736FD04463BE04746C8F86000FFF743
:100C80002FFD064605E000BFFFF72AFD801B022866
:100C90002BD828688001F7D4D4E907010843A16A5A
:100CA0002E4A490802EB0141626A41EA8211084377
:100CB00094F82C1040EA0161C9F800100120386650
:100CC000FFF70EFD044606E03EE000BFFFF708FD1B
:100CD000001B022809D828688001F7D534E000BF3E
:100CE000FFF7FEFC001B022802D90320BDE8F88FA5
:100CF00028688001F4D427E00128F7D0D9F8000053
:100D0000E26900F4800191421CD1226A00F03F01A7
:100D1000914217D147F6C071626A0140B1EB821F60
:100D200010D1A26A4FF0FF3300F4403103EB5202BE
:100D3000B1EB024F06D194F82C1000F07060B0EBCC
:100D4000016F01D00120D1E70020CFE70438024035
:100D500000004742800E4742007000400000FFFF45
:100D600010B5401EB0F1807F01D3012010BD4FF0BF
:100D7000E02460610F21601700F095FA0020A06167
:100D800007202061002010BD70B5040004D094F845
:100D90003D00002510B106E0012070BD84F83C50F4
:100DA000204600F023F8242084F83D002068C16824
:100DB00021F40051C160204600F080F920680169EB
:100DC00021F4904101612068416921F02A014161CB
:100DD0002068C16841F40051C1602564202084F876
:100DE0003D0084F83E00002070BD000010B5006892
:100DF000124986B088421ED11148016841F00101B4
:100E0000016000680F4C00F0010005904FF4007085
:100E100000900220019001200290032003900720FF
:100E2000049069462046FFF765FB2015009069464F
:100E30002046FFF75FFB06B010BD00000010014028
:100E400030380240000002402DE9F843044690F893
:100E50003D001F4616460D4620284CD1C5B1BEB1F7
:100E600094F83C00012846D0012084F83C004FF063
:100E70000008C4F84080212084F83D00FFF730FCD2
:100E8000A6848146E684A068B0F5805F03D004E0C4
:100E90000120BDE8F883206928B12E465FF00005E7
:100EA00084F83C800EE00026FAE78021204600F01E
:100EB0008BF9A0B9AEB116F8010B21684860E08C3F
:100EC000401EE084E08C4B464FF000020097002863
:100ED000EBD14FF04001204600F076F930B103200D
:100EE000D7E735F8020BC0F30800E6E7202084F8C6
:100EF0003D000020CDE70220CBE7FEE770B52A4891
:100F000086B00024016841F004010160016801F02D
:100F100004010591016841F080010160016801F060
:100F200080010591016841F001010160016801F053
:100F300001010591016841F002010160006814217E
:100F400000F0020005906846FFF75CFA4FF440702D
:100F500000900125CDE90154144E694630460394B2
:100F6000FFF7C8FA012211023046FFF7B3FBE8038E
:100F7000CDE9000469460E480294FFF7BBFA202031
:100F8000CDE900040B4E694630460294FFF7B2FAF1
:100F900008200090CDE90154694630460394FFF7DC
:100FA000A9FA06B070BD00003038024000080240C7
:100FB0000000024000040240114808B50268002108
:100FC00042F01002026000680E4A00F0100000902B
:100FD0000D4802604FF41652C0E901210C22C16095
:100FE000C0E904128161C161FFF7CEFE0022012138
:100FF0002520FFF7E3FBBDE808402520FFF7D0BB25
:10100000443802400010014038000020FEE7FEE7AF
:1010100070477047FFF76ABB30B593B03021684620
:10102000FFF7F0F914210CA8FFF7ECF91D48002593
:10103000016841F080510160006800F0805011901B
:101040001948016821F4404141F400410160006801
:10105000022400F44040119001200090000401900F
:101060008001CDE9064008AA0420542182E813003B
:101070000B906846FFF7BEFC08B172B6FEE70CA9FC
:101080000F2081E831004FF48050CDE90F05022197
:101090000CA8FFF7C5FB002801D072B6FEE713B01D
:1010A00030BD000040380240007000400248016836
:1010B00041F470010160704788ED00E070B50446AE
:1010C00000680169E26821F440511143016121691E
:1010D000A068E26908436169114308432168CA684E
:1010E00049F20C639A430243CA6020684169A269CD
:1010F00021F440711143416131492068884202D096
:101100003049884202D1FFF735FC01E0FFF722FCAD
:10111000E2690023192164253226B2F5004F626886
:1011200028D0A0FB0101930F9200FFF7A3F801461E
:10113000B0FBF5F06FF01802504301EB800006EBB6
:101140000010B0FBF5F000F0F002B1FBF5F002EB9F
:101150000012B1FBF5F06FF01803584301EB80006B
:1011600006EB0010B0FBF5F000F00F002168104412
:10117000886070BDA0FB010192185B41FFF77AF80F
:101180000146B0FBF5F00201B1FBF5F06FF018037A
:10119000584301EB800006EBC000B0FBF5F000F017
:1011A000F80002EB4002B1FBF5F0584301EB800080
:1011B00006EBC000B0FBF5F000F00700D6E700003A
:1011C00000100140001401402DE9F04198461746F7
:1011D0000E460446069D27E0681C25D02DB1FFF77A
:1011E0007FFAA0EB0800A8421ED920680C3050E816
:1011F000001F21F4D07140E80012002AF5D12068C8
:10120000143050E8001F21F0010140E80012002ACC
:10121000F5D1202084F83D0084F83E00002084F8B9
:101220003C000320BDE8F0812068006836EA000039
:1012300004D00020B842CFD00020F3E70120F9E726
:1012400030B515490A6810686FF01004C043830672
:10125000124813D453684588DBB22DB9146009686D
:10126000CA6842F01002CA6041881E2905D20C49A2
:1012700042888B544188491C418030BD1368DB4350
:10128000DB06FAD414600968CA6822F01002CA604A
:101290000121017030BD0000380000200000002056
:1012A00018000020FEE70907090E002804DB00F102
:1012B000E02080F80014704700F00F0000F1E020FB
:1012C00080F8141D7047000094B0FFF717FAFFF77D
:1012D000A3FEFFF713FEFFF76FFE43480068C168E7
:1012E00041F02001C1604FF461742046FFF7F0F82F
:1012F0002046FFF7EDF82046FFF7EAF82046FFF713
:10130000E7F82046FFF7E4F838A20BAB07CA83E8FA
:1013100007000BA8FFF725F882B24FF47A752B4629
:101320000BA93148FFF790FD2046FFF7D1F8204682
:10133000FFF7CEF8142230A106A8FFF731F806A86F
:10134000FFF70FF882B22B4606A92748FFF77CFD6E
:101350002046FFF7BDF82046FFF7BAF82BA10EABE9
:1013600007C983E807000EA8FEF7FBFF82B22B46F1
:101370000EA91D48FFF768FD2046FFF7A9F8204693
:10138000FFF7A6F8182224A16846FFF709F8684677
:10139000FEF7E7FF82B22B4669461348FFF754FD7C
:1013A0002046FFF795F82046FFF792F820A211ABF0
:1013B00007CA83E8070011A8FEF7D3FF82B22B46C5
:1013C00011A90948FFF740FD2046FFF781F82046A4
:1013D000FFF77EF819480121416000210278002AB8
:1013E000FCD041800170F9E73800002041542B4DBA
:1013F0004F44453D300D0A0041542B524642523D68
:10140000313030303030300D0A00000041542B5064
:1014100049443D300D0A000041542B554152543D82
:101420003131353230302C302C300D0A00000000C4
:1014300041542B4D4F44453D310D0A000000002022
:101440004FF04070E1EE100A70470000000000000D
:101450000000010203040607080900000000010261
:10146000030400008414000800000020180000009D
:10147000D00100089C14000818000020C8060000D5
:10148000EC01000800000000000000000100000066
:0C14900010000000000000000024F40028
:040000050800019559
:00000001FF
